{
  "_format": "hh-sol-artifact-1",
  "contractName": "ZkTwittMain",
  "sourceName": "contracts/ZkTwittMain.sol",
  "abi": [
    {
      "inputs": [
        {
          "internalType": "uint256",
          "name": "_costPerTweet",
          "type": "uint256"
        },
        {
          "internalType": "uint256",
          "name": "_costPerLike",
          "type": "uint256"
        },
        {
          "internalType": "address",
          "name": "_zkTwittERC20",
          "type": "address"
        },
        {
          "internalType": "address",
          "name": "_zkTwittERC721",
          "type": "address"
        }
      ],
      "stateMutability": "nonpayable",
      "type": "constructor"
    },
    {
      "inputs": [],
      "name": "buyToken",
      "outputs": [],
      "stateMutability": "payable",
      "type": "function"
    },
    {
      "inputs": [
        {
          "internalType": "uint256",
          "name": "_tokenId",
          "type": "uint256"
        }
      ],
      "name": "like",
      "outputs": [],
      "stateMutability": "nonpayable",
      "type": "function"
    },
    {
      "inputs": [
        {
          "internalType": "uint256",
          "name": "_tokenId",
          "type": "uint256"
        }
      ],
      "name": "retweet",
      "outputs": [],
      "stateMutability": "nonpayable",
      "type": "function"
    },
    {
      "inputs": [
        {
          "internalType": "uint256",
          "name": "_tokenId",
          "type": "uint256"
        }
      ],
      "name": "tweet",
      "outputs": [],
      "stateMutability": "nonpayable",
      "type": "function"
    }
  ],
  "bytecode": "0x608060405260026000553480156200001657600080fd5b5060405162000f2f38038062000f2f83398181016040528101906200003c9190620001c1565b670de0b6b3a76400008462000052919062000262565b600381905550670de0b6b3a7640000836200006e919062000262565b600181905550670de0b6b3a7640000836200008a919062000262565b60028190555081600460006101000a81548173ffffffffffffffffffffffffffffffffffffffff021916908373ffffffffffffffffffffffffffffffffffffffff16021790555080600560006101000a81548173ffffffffffffffffffffffffffffffffffffffff021916908373ffffffffffffffffffffffffffffffffffffffff16021790555050505050620002ad565b600080fd5b6000819050919050565b620001368162000121565b81146200014257600080fd5b50565b60008151905062000156816200012b565b92915050565b600073ffffffffffffffffffffffffffffffffffffffff82169050919050565b600062000189826200015c565b9050919050565b6200019b816200017c565b8114620001a757600080fd5b50565b600081519050620001bb8162000190565b92915050565b60008060008060808587031215620001de57620001dd6200011c565b5b6000620001ee8782880162000145565b9450506020620002018782880162000145565b93505060406200021487828801620001aa565b92505060606200022787828801620001aa565b91505092959194509250565b7f4e487b7100000000000000000000000000000000000000000000000000000000600052601160045260246000fd5b60006200026f8262000121565b91506200027c8362000121565b92508282026200028c8162000121565b91508282048414831517620002a657620002a562000233565b5b5092915050565b610c7280620002bd6000396000f3fe60806040526004361061003f5760003560e01c806331b8ef8714610044578063a48217191461006d578063e82935da14610077578063f753423a146100a0575b600080fd5b34801561005057600080fd5b5061006b60048036038101906100669190610802565b6100c9565b005b6100756102f2565b005b34801561008357600080fd5b5061009e60048036038101906100999190610802565b61039b565b005b3480156100ac57600080fd5b506100c760048036038101906100c29190610802565b6105c4565b005b600254600460009054906101000a900473ffffffffffffffffffffffffffffffffffffffff1673ffffffffffffffffffffffffffffffffffffffff166370a08231336040518263ffffffff1660e01b81526004016101279190610870565b602060405180830381865afa158015610144573d6000803e3d6000fd5b505050506040513d601f19601f8201168201806040525081019061016891906108a0565b10156101a9576040517f08c379a00000000000000000000000000000000000000000000000000000000081526004016101a090610950565b60405180910390fd5b6000600560009054906101000a900473ffffffffffffffffffffffffffffffffffffffff1673ffffffffffffffffffffffffffffffffffffffff16636352211e836040518263ffffffff1660e01b8152600401610206919061097f565b602060405180830381865afa158015610223573d6000803e3d6000fd5b505050506040513d601f19601f8201168201806040525081019061024791906109c6565b9050600460009054906101000a900473ffffffffffffffffffffffffffffffffffffffff1673ffffffffffffffffffffffffffffffffffffffff166323b872dd33836002546040518463ffffffff1660e01b81526004016102aa939291906109f3565b6020604051808303816000875af11580156102c9573d6000803e3d6000fd5b505050506040513d601f19601f820116820180604052508101906102ed9190610a62565b505050565b600034905060008054826103069190610abe565b9050600460009054906101000a900473ffffffffffffffffffffffffffffffffffffffff1673ffffffffffffffffffffffffffffffffffffffff166340c10f1933836040518363ffffffff1660e01b8152600401610365929190610aef565b600060405180830381600087803b15801561037f57600080fd5b505af1158015610393573d6000803e3d6000fd5b505050505050565b600154600460009054906101000a900473ffffffffffffffffffffffffffffffffffffffff1673ffffffffffffffffffffffffffffffffffffffff166370a08231336040518263ffffffff1660e01b81526004016103f99190610870565b602060405180830381865afa158015610416573d6000803e3d6000fd5b505050506040513d601f19601f8201168201806040525081019061043a91906108a0565b101561047b576040517f08c379a000000000000000000000000000000000000000000000000000000000815260040161047290610b8a565b60405180910390fd5b6000600560009054906101000a900473ffffffffffffffffffffffffffffffffffffffff1673ffffffffffffffffffffffffffffffffffffffff16636352211e836040518263ffffffff1660e01b81526004016104d8919061097f565b602060405180830381865afa1580156104f5573d6000803e3d6000fd5b505050506040513d601f19601f8201168201806040525081019061051991906109c6565b9050600460009054906101000a900473ffffffffffffffffffffffffffffffffffffffff1673ffffffffffffffffffffffffffffffffffffffff166323b872dd33836001546040518463ffffffff1660e01b815260040161057c939291906109f3565b6020604051808303816000875af115801561059b573d6000803e3d6000fd5b505050506040513d601f19601f820116820180604052508101906105bf9190610a62565b505050565b600354600460009054906101000a900473ffffffffffffffffffffffffffffffffffffffff1673ffffffffffffffffffffffffffffffffffffffff166370a08231336040518263ffffffff1660e01b81526004016106229190610870565b602060405180830381865afa15801561063f573d6000803e3d6000fd5b505050506040513d601f19601f8201168201806040525081019061066391906108a0565b10156106a4576040517f08c379a000000000000000000000000000000000000000000000000000000000815260040161069b90610c1c565b60405180910390fd5b600560009054906101000a900473ffffffffffffffffffffffffffffffffffffffff1673ffffffffffffffffffffffffffffffffffffffff1663a144819433836040518363ffffffff1660e01b8152600401610701929190610aef565b600060405180830381600087803b15801561071b57600080fd5b505af115801561072f573d6000803e3d6000fd5b50505050600460009054906101000a900473ffffffffffffffffffffffffffffffffffffffff1673ffffffffffffffffffffffffffffffffffffffff166379cc6790336003546040518363ffffffff1660e01b8152600401610792929190610aef565b600060405180830381600087803b1580156107ac57600080fd5b505af11580156107c0573d6000803e3d6000fd5b5050505050565b600080fd5b6000819050919050565b6107df816107cc565b81146107ea57600080fd5b50565b6000813590506107fc816107d6565b92915050565b600060208284031215610818576108176107c7565b5b6000610826848285016107ed565b91505092915050565b600073ffffffffffffffffffffffffffffffffffffffff82169050919050565b600061085a8261082f565b9050919050565b61086a8161084f565b82525050565b60006020820190506108856000830184610861565b92915050565b60008151905061089a816107d6565b92915050565b6000602082840312156108b6576108b56107c7565b5b60006108c48482850161088b565b91505092915050565b600082825260208201905092915050565b7f6e6f7420656e6f7567682062616c616e636520746f2070617920666f7220726560008201527f7477656574000000000000000000000000000000000000000000000000000000602082015250565b600061093a6025836108cd565b9150610945826108de565b604082019050919050565b600060208201905081810360008301526109698161092d565b9050919050565b610979816107cc565b82525050565b60006020820190506109946000830184610970565b92915050565b6109a38161084f565b81146109ae57600080fd5b50565b6000815190506109c08161099a565b92915050565b6000602082840312156109dc576109db6107c7565b5b60006109ea848285016109b1565b91505092915050565b6000606082019050610a086000830186610861565b610a156020830185610861565b610a226040830184610970565b949350505050565b60008115159050919050565b610a3f81610a2a565b8114610a4a57600080fd5b50565b600081519050610a5c81610a36565b92915050565b600060208284031215610a7857610a776107c7565b5b6000610a8684828501610a4d565b91505092915050565b7f4e487b7100000000000000000000000000000000000000000000000000000000600052601260045260246000fd5b6000610ac9826107cc565b9150610ad4836107cc565b925082610ae457610ae3610a8f565b5b828204905092915050565b6000604082019050610b046000830185610861565b610b116020830184610970565b9392505050565b7f6e6f7420656e6f7567682062616c616e636520746f2070617920666f72206c6960008201527f6b65000000000000000000000000000000000000000000000000000000000000602082015250565b6000610b746022836108cd565b9150610b7f82610b18565b604082019050919050565b60006020820190508181036000830152610ba381610b67565b9050919050565b7f6e6f7420656e6f7567682062616c616e636520746f2070617920666f7220747760008201527f6565740000000000000000000000000000000000000000000000000000000000602082015250565b6000610c066023836108cd565b9150610c1182610baa565b604082019050919050565b60006020820190508181036000830152610c3581610bf9565b905091905056fea264697066735822122006e57ef806a071049385cabe47a6abe505d4cd095789423fee8a08521dcae90a64736f6c63430008110033",
  "linkReferences": {},
  "deployedLinkReferences": {}
}